{
  "contractName": "MultiSign",
  "abi": [
    {
      "inputs": [
        {
          "internalType": "address[]",
          "name": "_owners",
          "type": "address[]"
        },
        {
          "internalType": "uint256",
          "name": "_numConfirmationsRequired",
          "type": "uint256"
        }
      ],
      "stateMutability": "nonpayable",
      "type": "constructor"
    },
    {
      "anonymous": false,
      "inputs": [
        {
          "indexed": true,
          "internalType": "address",
          "name": "owner",
          "type": "address"
        },
        {
          "indexed": true,
          "internalType": "uint256",
          "name": "txIndex",
          "type": "uint256"
        }
      ],
      "name": "ConfirmTransaction",
      "type": "event"
    },
    {
      "anonymous": false,
      "inputs": [
        {
          "indexed": true,
          "internalType": "address",
          "name": "sender",
          "type": "address"
        },
        {
          "indexed": false,
          "internalType": "uint256",
          "name": "amount",
          "type": "uint256"
        },
        {
          "indexed": false,
          "internalType": "uint256",
          "name": "balance",
          "type": "uint256"
        }
      ],
      "name": "Deposit",
      "type": "event"
    },
    {
      "anonymous": false,
      "inputs": [
        {
          "indexed": true,
          "internalType": "address",
          "name": "owner",
          "type": "address"
        },
        {
          "indexed": true,
          "internalType": "uint256",
          "name": "txIndex",
          "type": "uint256"
        },
        {
          "indexed": false,
          "internalType": "bool",
          "name": "success",
          "type": "bool"
        }
      ],
      "name": "ExecuteTransaction",
      "type": "event"
    },
    {
      "anonymous": false,
      "inputs": [
        {
          "indexed": true,
          "internalType": "address",
          "name": "owner",
          "type": "address"
        },
        {
          "indexed": true,
          "internalType": "uint256",
          "name": "txIndex",
          "type": "uint256"
        }
      ],
      "name": "RevokeConfirmation",
      "type": "event"
    },
    {
      "anonymous": false,
      "inputs": [
        {
          "indexed": true,
          "internalType": "address",
          "name": "owner",
          "type": "address"
        },
        {
          "indexed": true,
          "internalType": "uint256",
          "name": "txIndex",
          "type": "uint256"
        },
        {
          "indexed": true,
          "internalType": "address",
          "name": "to",
          "type": "address"
        },
        {
          "indexed": false,
          "internalType": "uint256",
          "name": "value",
          "type": "uint256"
        },
        {
          "indexed": false,
          "internalType": "bytes",
          "name": "data",
          "type": "bytes"
        }
      ],
      "name": "SubmitTransaction",
      "type": "event"
    },
    {
      "inputs": [
        {
          "internalType": "uint256",
          "name": "",
          "type": "uint256"
        }
      ],
      "name": "existingTX",
      "outputs": [
        {
          "internalType": "bool",
          "name": "",
          "type": "bool"
        }
      ],
      "stateMutability": "view",
      "type": "function"
    },
    {
      "inputs": [
        {
          "internalType": "uint256",
          "name": "",
          "type": "uint256"
        },
        {
          "internalType": "address",
          "name": "",
          "type": "address"
        }
      ],
      "name": "isConfirmed",
      "outputs": [
        {
          "internalType": "bool",
          "name": "",
          "type": "bool"
        }
      ],
      "stateMutability": "view",
      "type": "function"
    },
    {
      "inputs": [],
      "name": "numConfirmationsRequired",
      "outputs": [
        {
          "internalType": "uint256",
          "name": "",
          "type": "uint256"
        }
      ],
      "stateMutability": "view",
      "type": "function"
    },
    {
      "inputs": [
        {
          "internalType": "uint256",
          "name": "",
          "type": "uint256"
        }
      ],
      "name": "owners",
      "outputs": [
        {
          "internalType": "address",
          "name": "",
          "type": "address"
        }
      ],
      "stateMutability": "view",
      "type": "function"
    },
    {
      "inputs": [
        {
          "internalType": "uint256",
          "name": "",
          "type": "uint256"
        }
      ],
      "name": "transactions",
      "outputs": [
        {
          "internalType": "address",
          "name": "to",
          "type": "address"
        },
        {
          "internalType": "uint256",
          "name": "value",
          "type": "uint256"
        },
        {
          "internalType": "bytes",
          "name": "data",
          "type": "bytes"
        },
        {
          "internalType": "bool",
          "name": "executed",
          "type": "bool"
        },
        {
          "internalType": "uint256",
          "name": "numConfirmations",
          "type": "uint256"
        }
      ],
      "stateMutability": "view",
      "type": "function"
    },
    {
      "stateMutability": "payable",
      "type": "receive"
    },
    {
      "inputs": [
        {
          "internalType": "bytes",
          "name": "_message",
          "type": "bytes"
        }
      ],
      "name": "hashTX",
      "outputs": [
        {
          "internalType": "bytes32",
          "name": "",
          "type": "bytes32"
        }
      ],
      "stateMutability": "pure",
      "type": "function"
    },
    {
      "inputs": [
        {
          "internalType": "bytes32",
          "name": "_messageHash",
          "type": "bytes32"
        }
      ],
      "name": "EthSgTXHsh",
      "outputs": [
        {
          "internalType": "bytes32",
          "name": "",
          "type": "bytes32"
        }
      ],
      "stateMutability": "pure",
      "type": "function"
    },
    {
      "inputs": [
        {
          "internalType": "bytes",
          "name": "_messageHash",
          "type": "bytes"
        }
      ],
      "name": "EthSgTXHsh2",
      "outputs": [
        {
          "internalType": "bytes32",
          "name": "",
          "type": "bytes32"
        }
      ],
      "stateMutability": "pure",
      "type": "function"
    },
    {
      "inputs": [
        {
          "components": [
            {
              "internalType": "address",
              "name": "to",
              "type": "address"
            },
            {
              "internalType": "uint256",
              "name": "value",
              "type": "uint256"
            },
            {
              "internalType": "bytes",
              "name": "data",
              "type": "bytes"
            },
            {
              "internalType": "bool",
              "name": "executed",
              "type": "bool"
            },
            {
              "internalType": "uint256",
              "name": "numConfirmations",
              "type": "uint256"
            }
          ],
          "internalType": "struct MultiSign.Transaction",
          "name": "_transaction",
          "type": "tuple"
        }
      ],
      "name": "TXSgHsh",
      "outputs": [
        {
          "internalType": "bytes32",
          "name": "",
          "type": "bytes32"
        }
      ],
      "stateMutability": "pure",
      "type": "function"
    },
    {
      "inputs": [
        {
          "internalType": "uint256",
          "name": "_txIndex",
          "type": "uint256"
        }
      ],
      "name": "getTXHashfromID",
      "outputs": [
        {
          "internalType": "bytes32",
          "name": "",
          "type": "bytes32"
        }
      ],
      "stateMutability": "view",
      "type": "function"
    },
    {
      "inputs": [
        {
          "internalType": "bytes32",
          "name": "h",
          "type": "bytes32"
        },
        {
          "internalType": "uint8",
          "name": "v",
          "type": "uint8"
        },
        {
          "internalType": "bytes32",
          "name": "r",
          "type": "bytes32"
        },
        {
          "internalType": "bytes32",
          "name": "s",
          "type": "bytes32"
        }
      ],
      "name": "checkSignature",
      "outputs": [
        {
          "internalType": "address",
          "name": "signer",
          "type": "address"
        }
      ],
      "stateMutability": "pure",
      "type": "function"
    },
    {
      "inputs": [
        {
          "internalType": "uint256",
          "name": "_txIndex",
          "type": "uint256"
        }
      ],
      "name": "confirmTransaction",
      "outputs": [],
      "stateMutability": "nonpayable",
      "type": "function"
    },
    {
      "inputs": [
        {
          "internalType": "uint256",
          "name": "_txIndex",
          "type": "uint256"
        },
        {
          "internalType": "uint8[]",
          "name": "sigV",
          "type": "uint8[]"
        },
        {
          "internalType": "bytes32[]",
          "name": "sigR",
          "type": "bytes32[]"
        },
        {
          "internalType": "bytes32[]",
          "name": "sigS",
          "type": "bytes32[]"
        }
      ],
      "name": "executeTransaction",
      "outputs": [],
      "stateMutability": "payable",
      "type": "function"
    },
    {
      "inputs": [
        {
          "internalType": "uint256",
          "name": "_txIndex",
          "type": "uint256"
        }
      ],
      "name": "revokeConfirmation",
      "outputs": [],
      "stateMutability": "nonpayable",
      "type": "function"
    },
    {
      "inputs": [
        {
          "internalType": "address",
          "name": "_to",
          "type": "address"
        },
        {
          "internalType": "uint256",
          "name": "_value",
          "type": "uint256"
        },
        {
          "internalType": "bytes",
          "name": "_data",
          "type": "bytes"
        }
      ],
      "name": "submitTransaction",
      "outputs": [],
      "stateMutability": "nonpayable",
      "type": "function"
    },
    {
      "inputs": [
        {
          "internalType": "uint256",
          "name": "_txIndex",
          "type": "uint256"
        }
      ],
      "name": "getTransaction",
      "outputs": [
        {
          "internalType": "address",
          "name": "to",
          "type": "address"
        },
        {
          "internalType": "uint256",
          "name": "value",
          "type": "uint256"
        },
        {
          "internalType": "bytes",
          "name": "data",
          "type": "bytes"
        },
        {
          "internalType": "bool",
          "name": "executed",
          "type": "bool"
        },
        {
          "internalType": "uint256",
          "name": "numConfirmations",
          "type": "uint256"
        }
      ],
      "stateMutability": "view",
      "type": "function"
    },
    {
      "inputs": [],
      "name": "getOwners",
      "outputs": [
        {
          "internalType": "address[]",
          "name": "",
          "type": "address[]"
        }
      ],
      "stateMutability": "view",
      "type": "function"
    },
    {
      "inputs": [
        {
          "internalType": "uint256",
          "name": "_txIndex",
          "type": "uint256"
        }
      ],
      "name": "gettrd",
      "outputs": [
        {
          "internalType": "bytes32",
          "name": "",
          "type": "bytes32"
        }
      ],
      "stateMutability": "view",
      "type": "function"
    },
    {
      "inputs": [],
      "name": "getthisbal",
      "outputs": [
        {
          "internalType": "uint256",
          "name": "",
          "type": "uint256"
        }
      ],
      "stateMutability": "view",
      "type": "function"
    }
  ],
  "bytecode": "0x60806040527fa2743967920baf970a18574423a5e903484167f01ff6c1b931ebc9e87d7792b960001b6000557fc89efdaa54c0f20c7adf612882df0950f5a951637e0307cdcb4c672f298b8bc660001b6001557f591f92c04bedf51c4d4ab63da86ce895de5a497600061375b667f522f38e3ada60001b6002553480156200008657600080fd5b5060405162003562380380620035628339818101604052810190620000ac919062000437565b6000825111620000f3576040517f08c379a0000000000000000000000000000000000000000000000000000000008152600401620000ea9062000539565b60405180910390fd5b60008111801562000105575081518111155b62000147576040517f08c379a00000000000000000000000000000000000000000000000000000000081526004016200013e906200059f565b60405180910390fd5b60005b82518110156200034b5760008382815181106200016c576200016b6200071b565b5b60200260200101519050600073ffffffffffffffffffffffffffffffffffffffff168173ffffffffffffffffffffffffffffffffffffffff161415620001e9576040517f08c379a0000000000000000000000000000000000000000000000000000000008152600401620001e0906200057d565b60405180910390fd5b600460008273ffffffffffffffffffffffffffffffffffffffff1673ffffffffffffffffffffffffffffffffffffffff16815260200190815260200160002060009054906101000a900460ff161562000279576040517f08c379a000000000000000000000000000000000000000000000000000000000815260040162000270906200055b565b60405180910390fd5b6001600460008373ffffffffffffffffffffffffffffffffffffffff1673ffffffffffffffffffffffffffffffffffffffff16815260200190815260200160002060006101000a81548160ff0219169083151502179055506003819080600181540180825580915050600190039060005260206000200160009091909190916101000a81548173ffffffffffffffffffffffffffffffffffffffff021916908373ffffffffffffffffffffffffffffffffffffffff16021790555050808062000342906200069e565b9150506200014a565b508060058190555050506200089c565b6000620003726200036c84620005ea565b620005c1565b905080838252602082019050828560208602820111156200039857620003976200077e565b5b60005b85811015620003cc5781620003b18882620003d6565b8452602084019350602083019250506001810190506200039b565b5050509392505050565b600081519050620003e78162000868565b92915050565b600082601f83011262000405576200040462000779565b5b8151620004178482602086016200035b565b91505092915050565b600081519050620004318162000882565b92915050565b6000806040838503121562000451576200045062000788565b5b600083015167ffffffffffffffff81111562000472576200047162000783565b5b6200048085828601620003ed565b9250506020620004938582860162000420565b9150509250929050565b6000620004ac60108362000619565b9150620004b9826200079e565b602082019050919050565b6000620004d360118362000619565b9150620004e082620007c7565b602082019050919050565b6000620004fa600e8362000619565b91506200050782620007f0565b602082019050919050565b60006200052160298362000619565b91506200052e8262000819565b604082019050919050565b6000602082019050818103600083015262000554816200049d565b9050919050565b600060208201905081810360008301526200057681620004c4565b9050919050565b600060208201905081810360008301526200059881620004eb565b9050919050565b60006020820190508181036000830152620005ba8162000512565b9050919050565b6000620005cd620005e0565b9050620005db828262000668565b919050565b6000604051905090565b600067ffffffffffffffff8211156200060857620006076200074a565b5b602082029050602081019050919050565b600082825260208201905092915050565b600062000637826200063e565b9050919050565b600073ffffffffffffffffffffffffffffffffffffffff82169050919050565b6000819050919050565b62000673826200078d565b810181811067ffffffffffffffff821117156200069557620006946200074a565b5b80604052505050565b6000620006ab826200065e565b91507fffffffffffffffffffffffffffffffffffffffffffffffffffffffffffffffff821415620006e157620006e0620006ec565b5b600182019050919050565b7f4e487b7100000000000000000000000000000000000000000000000000000000600052601160045260246000fd5b7f4e487b7100000000000000000000000000000000000000000000000000000000600052603260045260246000fd5b7f4e487b7100000000000000000000000000000000000000000000000000000000600052604160045260246000fd5b600080fd5b600080fd5b600080fd5b600080fd5b6000601f19601f8301169050919050565b7f4f776e6572732072657175697265642100000000000000000000000000000000600082015250565b7f4f776e6572206e6f7420756e6971756521000000000000000000000000000000600082015250565b7f496e76616c6964206f776e657221000000000000000000000000000000000000600082015250565b7f496e76616c6964206e756d626572206f6620726571756972656420636f6e666960008201527f726d6174696f6e73210000000000000000000000000000000000000000000000602082015250565b62000873816200062a565b81146200087f57600080fd5b50565b6200088d816200065e565b81146200089957600080fd5b50565b612cb680620008ac6000396000f3fe6080604052600436106101185760003560e01c8063a0e67e2b116100a0578063c75d360d11610064578063c75d360d14610451578063d0549b851461048e578063da49b377146104b9578063ed342450146104f6578063eedaa500146105335761016f565b8063a0e67e2b1461036c578063a9fde13c14610397578063ae9545a3146103c2578063c01a8c84146103ff578063c6427474146104285761016f565b806333ea3dc8116100e757806333ea3dc81461025457806365b45919146102955780636ebc9be9146102d257806380f59a65146102ee5780639ace38c21461032b5761016f565b8063025e7c271461017457806311a25b69146101b157806320ea8d86146101ee5780632c1afb36146102175761016f565b3661016f573373ffffffffffffffffffffffffffffffffffffffff167f90890809c654f11d6e72a28fa60149770a0d11ec6c92319d6ceb2bb0a4ea1a153447604051610165929190612602565b60405180910390a2005b600080fd5b34801561018057600080fd5b5061019b60048036038101906101969190611e7e565b610570565b6040516101a89190612383565b60405180910390f35b3480156101bd57600080fd5b506101d860048036038101906101d39190611e35565b6105af565b6040516101e59190612435565b60405180910390f35b3480156101fa57600080fd5b5061021560048036038101906102109190611e7e565b6105ef565b005b34801561022357600080fd5b5061023e60048036038101906102399190611e7e565b610893565b60405161024b919061241a565b60405180910390f35b34801561026057600080fd5b5061027b60048036038101906102769190611e7e565b6108b3565b60405161028c95949392919061239e565b60405180910390f35b3480156102a157600080fd5b506102bc60048036038101906102b79190611e7e565b6109c6565b6040516102c99190612435565b60405180910390f35b6102ec60048036038101906102e79190611eeb565b610b2f565b005b3480156102fa57600080fd5b5061031560048036038101906103109190611eab565b611150565b604051610322919061241a565b60405180910390f35b34801561033757600080fd5b50610352600480360381019061034d9190611e7e565b61117f565b60405161036395949392919061239e565b60405180910390f35b34801561037857600080fd5b5061038161127a565b60405161038e91906123f8565b60405180910390f35b3480156103a357600080fd5b506103ac611308565b6040516103b991906125b7565b60405180910390f35b3480156103ce57600080fd5b506103e960048036038101906103e49190611e7e565b611310565b6040516103f69190612435565b60405180910390f35b34801561040b57600080fd5b5061042660048036038101906104219190611e7e565b6113da565b005b34801561043457600080fd5b5061044f600480360381019061044a9190611ce9565b611681565b005b34801561045d57600080fd5b5061047860048036038101906104739190611dec565b61188b565b6040516104859190612435565b60405180910390f35b34801561049a57600080fd5b506104a36118bb565b6040516104b091906125b7565b60405180910390f35b3480156104c557600080fd5b506104e060048036038101906104db9190611d58565b6118c1565b6040516104ed9190612435565b60405180910390f35b34801561050257600080fd5b5061051d60048036038101906105189190611dec565b6118f1565b60405161052a9190612435565b60405180910390f35b34801561053f57600080fd5b5061055a60048036038101906105559190611d85565b611921565b6040516105679190612383565b60405180910390f35b6003818154811061058057600080fd5b906000526020600020016000915054906101000a900473ffffffffffffffffffffffffffffffffffffffff1681565b60008160000151826020015183604001516040516020016105d2939291906122f7565b604051602081830303815290604052805190602001209050919050565b600460003373ffffffffffffffffffffffffffffffffffffffff1673ffffffffffffffffffffffffffffffffffffffff16815260200190815260200160002060009054906101000a900460ff1661067b576040517f08c379a0000000000000000000000000000000000000000000000000000000008152600401610672906124b7565b60405180910390fd5b80600880549050811061068d57600080fd5b81600881815481106106a2576106a16129d7565b5b906000526020600020906005020160030160009054906101000a900460ff1615610701576040517f08c379a00000000000000000000000000000000000000000000000000000000081526004016106f890612557565b60405180910390fd5b600060088481548110610717576107166129d7565b5b906000526020600020906005020190506006600085815260200190815260200160002060003373ffffffffffffffffffffffffffffffffffffffff1673ffffffffffffffffffffffffffffffffffffffff16815260200190815260200160002060009054906101000a900460ff166107c4576040517f08c379a00000000000000000000000000000000000000000000000000000000081526004016107bb90612597565b60405180910390fd5b60018160040160008282546107d991906127c0565b9250508190555060006006600086815260200190815260200160002060003373ffffffffffffffffffffffffffffffffffffffff1673ffffffffffffffffffffffffffffffffffffffff16815260200190815260200160002060006101000a81548160ff021916908315150217905550833373ffffffffffffffffffffffffffffffffffffffff167ff0dca620e2e81f7841d07bcc105e1704fb01475b278a9d4c236e1c62945edd5560405160405180910390a350505050565b60076020528060005260406000206000915054906101000a900460ff1681565b60008060606000806000600887815481106108d1576108d06129d7565b5b906000526020600020906005020190508060000160009054906101000a900473ffffffffffffffffffffffffffffffffffffffff168160010154826002018360030160009054906101000a900460ff16846004015482805461093290612895565b80601f016020809104026020016040519081016040528092919081815260200182805461095e90612895565b80156109ab5780601f10610980576101008083540402835291602001916109ab565b820191906000526020600020905b81548152906001019060200180831161098e57829003601f168201915b50505050509250955095509550955095505091939590929450565b60008160088054905081106109da57600080fd5b610b2760086000815481106109f2576109f16129d7565b5b90600052602060002090600502016040518060a00160405290816000820160009054906101000a900473ffffffffffffffffffffffffffffffffffffffff1673ffffffffffffffffffffffffffffffffffffffff1673ffffffffffffffffffffffffffffffffffffffff16815260200160018201548152602001600282018054610a7b90612895565b80601f0160208091040260200160405190810160405280929190818152602001828054610aa790612895565b8015610af45780601f10610ac957610100808354040283529160200191610af4565b820191906000526020600020905b815481529060010190602001808311610ad757829003601f168201915b505050505081526020016003820160009054906101000a900460ff161515151581526020016004820154815250506105af565b915050919050565b600460003373ffffffffffffffffffffffffffffffffffffffff1673ffffffffffffffffffffffffffffffffffffffff16815260200190815260200160002060009054906101000a900460ff16610bbb576040517f08c379a0000000000000000000000000000000000000000000000000000000008152600401610bb2906124b7565b60405180910390fd5b836008805490508110610bcd57600080fd5b8460088181548110610be257610be16129d7565b5b906000526020600020906005020160030160009054906101000a900460ff1615610c41576040517f08c379a0000000000000000000000000000000000000000000000000000000008152600401610c3890612557565b60405180910390fd5b82518451148015610c53575084518451145b8015610c625750600554855110155b610ca1576040517f08c379a0000000000000000000000000000000000000000000000000000000008152600401610c9890612577565b60405180910390fd5b60055460088781548110610cb857610cb76129d7565b5b90600052602060002090600502016004015410158015610d02575060038054905060088781548110610ced57610cec6129d7565b5b90600052602060002090600502016004015411155b610d41576040517f08c379a0000000000000000000000000000000000000000000000000000000008152600401610d38906124d7565b60405180910390fd5b600060088781548110610d5757610d566129d7565b5b906000526020600020906005020190506000610e94826040518060a00160405290816000820160009054906101000a900473ffffffffffffffffffffffffffffffffffffffff1673ffffffffffffffffffffffffffffffffffffffff1673ffffffffffffffffffffffffffffffffffffffff16815260200160018201548152602001600282018054610de890612895565b80601f0160208091040260200160405190810160405280929190818152602001828054610e1490612895565b8015610e615780601f10610e3657610100808354040283529160200191610e61565b820191906000526020600020905b815481529060010190602001808311610e4457829003601f168201915b505050505081526020016003820160009054906101000a900460ff161515151581526020016004820154815250506105af565b905060005b600554811015610fde576000610eff838a8481518110610ebc57610ebb6129d7565b5b60200260200101518a8581518110610ed757610ed66129d7565b5b60200260200101518a8681518110610ef257610ef16129d7565b5b6020026020010151611921565b9050600460008273ffffffffffffffffffffffffffffffffffffffff1673ffffffffffffffffffffffffffffffffffffffff16815260200190815260200160002060009054906101000a900460ff16610fca57600160088b81548110610f6857610f676129d7565b5b90600052602060002090600502016004016000828254610f8891906127c0565b925050819055506040517f08c379a0000000000000000000000000000000000000000000000000000000008152600401610fc190612537565b60405180910390fd5b508080610fd6906128f8565b915050610e99565b5060008260000160009054906101000a900473ffffffffffffffffffffffffffffffffffffffff16905060008173ffffffffffffffffffffffffffffffffffffffff16846002016040516020016110359190612495565b60405160208183030381529060405260405161105191906122e0565b6000604051808303816000865af19150503d806000811461108e576040519150601f19603f3d011682016040523d82523d6000602084013e611093565b606091505b50509050806110d7576040517f08c379a00000000000000000000000000000000000000000000000000000000081526004016110ce90612517565b60405180910390fd5b60018460030160006101000a81548160ff021916908315150217905550893373ffffffffffffffffffffffffffffffffffffffff167f3cc489c1da5c5ee0962f501f77578005f0dce9ee82a06f1e7703c0c006de493b600160405161113c919061241a565b60405180910390a350505050505050505050565b60066020528160005260406000206020528060005260406000206000915091509054906101000a900460ff1681565b6008818154811061118f57600080fd5b90600052602060002090600502016000915090508060000160009054906101000a900473ffffffffffffffffffffffffffffffffffffffff16908060010154908060020180546111de90612895565b80601f016020809104026020016040519081016040528092919081815260200182805461120a90612895565b80156112575780601f1061122c57610100808354040283529160200191611257565b820191906000526020600020905b81548152906001019060200180831161123a57829003601f168201915b5050505050908060030160009054906101000a900460ff16908060040154905085565b606060038054806020026020016040519081016040528092919081815260200182805480156112fe57602002820191906000526020600020905b8160009054906101000a900473ffffffffffffffffffffffffffffffffffffffff1673ffffffffffffffffffffffffffffffffffffffff16815260200190600101908083116112b4575b5050505050905090565b600047905090565b60008060088381548110611327576113266129d7565b5b9060005260206000209060050201905060006113ce82600201805461134b90612895565b80601f016020809104026020016040519081016040528092919081815260200182805461137790612895565b80156113c45780601f10611399576101008083540402835291602001916113c4565b820191906000526020600020905b8154815290600101906020018083116113a757829003601f168201915b50505050506118f1565b90508092505050919050565b600460003373ffffffffffffffffffffffffffffffffffffffff1673ffffffffffffffffffffffffffffffffffffffff16815260200190815260200160002060009054906101000a900460ff16611466576040517f08c379a000000000000000000000000000000000000000000000000000000000815260040161145d906124b7565b60405180910390fd5b80600880549050811061147857600080fd5b816008818154811061148d5761148c6129d7565b5b906000526020600020906005020160030160009054906101000a900460ff16156114ec576040517f08c379a00000000000000000000000000000000000000000000000000000000081526004016114e390612557565b60405180910390fd5b826006600082815260200190815260200160002060003373ffffffffffffffffffffffffffffffffffffffff1673ffffffffffffffffffffffffffffffffffffffff16815260200190815260200160002060009054906101000a900460ff161561158b576040517f08c379a0000000000000000000000000000000000000000000000000000000008152600401611582906124f7565b60405180910390fd5b6000600885815481106115a1576115a06129d7565b5b9060005260206000209060050201905060016006600087815260200190815260200160002060003373ffffffffffffffffffffffffffffffffffffffff1673ffffffffffffffffffffffffffffffffffffffff16815260200190815260200160002060006101000a81548160ff021916908315150217905550600181600401600082825461162f919061276a565b92505081905550843373ffffffffffffffffffffffffffffffffffffffff167f5cbe105e36805f7820e291f799d5794ff948af2a5f664e580382defb6339004160405160405180910390a35050505050565b600460003373ffffffffffffffffffffffffffffffffffffffff1673ffffffffffffffffffffffffffffffffffffffff16815260200190815260200160002060009054906101000a900460ff1661170d576040517f08c379a0000000000000000000000000000000000000000000000000000000008152600401611704906124b7565b60405180910390fd5b6000600880549050905060086040518060a001604052808673ffffffffffffffffffffffffffffffffffffffff1681526020018581526020018481526020016000151581526020016000815250908060018154018082558091505060019003906000526020600020906005020160009091909190915060008201518160000160006101000a81548173ffffffffffffffffffffffffffffffffffffffff021916908373ffffffffffffffffffffffffffffffffffffffff1602179055506020820151816001015560408201518160020190805190602001906117f0929190611989565b5060608201518160030160006101000a81548160ff0219169083151502179055506080820151816004015550508373ffffffffffffffffffffffffffffffffffffffff16813373ffffffffffffffffffffffffffffffffffffffff167fd5a05bf70715ad82a09a756320284a1b54c9ff74cd0f8cce6219e79b563fe59d868660405161187d9291906125d2565b60405180910390a450505050565b60008160405160200161189e91906122e0565b604051602081830303815290604052805190602001209050919050565b60055481565b6000816040516020016118d4919061233b565b604051602081830303815290604052805190602001209050919050565b6000816040516020016119049190612361565b604051602081830303815290604052805190602001209050919050565b60008061192d866118c1565b9050600181868686604051600081526020016040526040516119529493929190612450565b6020604051602081039080840390855afa158015611974573d6000803e3d6000fd5b50505060206040510351915050949350505050565b82805461199590612895565b90600052602060002090601f0160209004810192826119b757600085556119fe565b82601f106119d057805160ff19168380011785556119fe565b828001600101855582156119fe579182015b828111156119fd5782518255916020019190600101906119e2565b5b509050611a0b9190611a0f565b5090565b5b80821115611a28576000816000905550600101611a10565b5090565b6000611a3f611a3a84612650565b61262b565b90508083825260208201905082856020860282011115611a6257611a61612a44565b5b60005b85811015611a925781611a788882611bd4565b845260208401935060208301925050600181019050611a65565b5050509392505050565b6000611aaf611aaa8461267c565b61262b565b90508083825260208201905082856020860282011115611ad257611ad1612a44565b5b60005b85811015611b025781611ae88882611cd4565b845260208401935060208301925050600181019050611ad5565b5050509392505050565b6000611b1f611b1a846126a8565b61262b565b905082815260208101848484011115611b3b57611b3a612a49565b5b611b46848285612853565b509392505050565b600081359050611b5d81612c0d565b92915050565b600082601f830112611b7857611b77612a35565b5b8135611b88848260208601611a2c565b91505092915050565b600082601f830112611ba657611ba5612a35565b5b8135611bb6848260208601611a9c565b91505092915050565b600081359050611bce81612c24565b92915050565b600081359050611be381612c3b565b92915050565b600082601f830112611bfe57611bfd612a35565b5b8135611c0e848260208601611b0c565b91505092915050565b600060a08284031215611c2d57611c2c612a3a565b5b611c3760a061262b565b90506000611c4784828501611b4e565b6000830152506020611c5b84828501611cbf565b602083015250604082013567ffffffffffffffff811115611c7f57611c7e612a3f565b5b611c8b84828501611be9565b6040830152506060611c9f84828501611bbf565b6060830152506080611cb384828501611cbf565b60808301525092915050565b600081359050611cce81612c52565b92915050565b600081359050611ce381612c69565b92915050565b600080600060608486031215611d0257611d01612a53565b5b6000611d1086828701611b4e565b9350506020611d2186828701611cbf565b925050604084013567ffffffffffffffff811115611d4257611d41612a4e565b5b611d4e86828701611be9565b9150509250925092565b600060208284031215611d6e57611d6d612a53565b5b6000611d7c84828501611bd4565b91505092915050565b60008060008060808587031215611d9f57611d9e612a53565b5b6000611dad87828801611bd4565b9450506020611dbe87828801611cd4565b9350506040611dcf87828801611bd4565b9250506060611de087828801611bd4565b91505092959194509250565b600060208284031215611e0257611e01612a53565b5b600082013567ffffffffffffffff811115611e2057611e1f612a4e565b5b611e2c84828501611be9565b91505092915050565b600060208284031215611e4b57611e4a612a53565b5b600082013567ffffffffffffffff811115611e6957611e68612a4e565b5b611e7584828501611c17565b91505092915050565b600060208284031215611e9457611e93612a53565b5b6000611ea284828501611cbf565b91505092915050565b60008060408385031215611ec257611ec1612a53565b5b6000611ed085828601611cbf565b9250506020611ee185828601611b4e565b9150509250929050565b60008060008060808587031215611f0557611f04612a53565b5b6000611f1387828801611cbf565b945050602085013567ffffffffffffffff811115611f3457611f33612a4e565b5b611f4087828801611b91565b935050604085013567ffffffffffffffff811115611f6157611f60612a4e565b5b611f6d87828801611b63565b925050606085013567ffffffffffffffff811115611f8e57611f8d612a4e565b5b611f9a87828801611b63565b91505092959194509250565b6000611fb28383611fbe565b60208301905092915050565b611fc7816127f4565b82525050565b611fd6816127f4565b82525050565b611fed611fe8826127f4565b612941565b82525050565b6000611ffe826126fe565b6120088185612721565b9350612013836126d9565b8060005b8381101561204457815161202b8882611fa6565b975061203683612714565b925050600181019050612017565b5085935050505092915050565b61205a81612806565b82525050565b61206981612812565b82525050565b61208061207b82612812565b612953565b82525050565b600061209182612709565b61209b8185612732565b93506120ab818560208601612862565b6120b481612a58565b840191505092915050565b60006120ca82612709565b6120d48185612743565b93506120e4818560208601612862565b80840191505092915050565b600081546120fd81612895565b6121078186612732565b94506001821660008114612122576001811461213457612167565b60ff1983168652602086019350612167565b61213d856126e9565b60005b8381101561215f57815481890152600182019150602081019050612140565b808801955050505b50505092915050565b600061217d600a8361274e565b915061218882612a76565b602082019050919050565b60006121a0602f8361274e565b91506121ab82612a9f565b604082019050919050565b60006121c3601c8361275f565b91506121ce82612aee565b601c82019050919050565b60006121e660158361274e565b91506121f182612b17565b602082019050919050565b6000612209600a8361274e565b915061221482612b40565b602082019050919050565b600061222c60178361274e565b915061223782612b69565b602082019050919050565b600061224f60148361274e565b915061225a82612b92565b602082019050919050565b600061227260138361274e565b915061227d82612bbb565b602082019050919050565b600061229560108361274e565b91506122a082612be4565b602082019050919050565b6122b48161283c565b82525050565b6122cb6122c68261283c565b61296f565b82525050565b6122da81612846565b82525050565b60006122ec82846120bf565b915081905092915050565b6000612302826121b6565b915061230e8286611fdc565b60148201915061231e82856122ba565b60208201915061232e82846120bf565b9150819050949350505050565b6000612346826121b6565b9150612352828461206f565b60208201915081905092915050565b600061236c826121b6565b915061237882846120bf565b915081905092915050565b60006020820190506123986000830184611fcd565b92915050565b600060a0820190506123b36000830188611fcd565b6123c060208301876122ab565b81810360408301526123d28186612086565b90506123e16060830185612051565b6123ee60808301846122ab565b9695505050505050565b600060208201905081810360008301526124128184611ff3565b905092915050565b600060208201905061242f6000830184612051565b92915050565b600060208201905061244a6000830184612060565b92915050565b60006080820190506124656000830187612060565b61247260208301866122d1565b61247f6040830185612060565b61248c6060830184612060565b95945050505050565b600060208201905081810360008301526124af81846120f0565b905092915050565b600060208201905081810360008301526124d081612170565b9050919050565b600060208201905081810360008301526124f081612193565b9050919050565b60006020820190508181036000830152612510816121d9565b9050919050565b60006020820190508181036000830152612530816121fc565b9050919050565b600060208201905081810360008301526125508161221f565b9050919050565b6000602082019050818103600083015261257081612242565b9050919050565b6000602082019050818103600083015261259081612265565b9050919050565b600060208201905081810360008301526125b081612288565b9050919050565b60006020820190506125cc60008301846122ab565b92915050565b60006040820190506125e760008301856122ab565b81810360208301526125f98184612086565b90509392505050565b600060408201905061261760008301856122ab565b61262460208301846122ab565b9392505050565b6000612635612646565b905061264182826128c7565b919050565b6000604051905090565b600067ffffffffffffffff82111561266b5761266a612a06565b5b602082029050602081019050919050565b600067ffffffffffffffff82111561269757612696612a06565b5b602082029050602081019050919050565b600067ffffffffffffffff8211156126c3576126c2612a06565b5b6126cc82612a58565b9050602081019050919050565b6000819050602082019050919050565b60008190508160005260206000209050919050565b600081519050919050565b600081519050919050565b6000602082019050919050565b600082825260208201905092915050565b600082825260208201905092915050565b600081905092915050565b600082825260208201905092915050565b600081905092915050565b60006127758261283c565b91506127808361283c565b9250827fffffffffffffffffffffffffffffffffffffffffffffffffffffffffffffffff038211156127b5576127b4612979565b5b828201905092915050565b60006127cb8261283c565b91506127d68361283c565b9250828210156127e9576127e8612979565b5b828203905092915050565b60006127ff8261281c565b9050919050565b60008115159050919050565b6000819050919050565b600073ffffffffffffffffffffffffffffffffffffffff82169050919050565b6000819050919050565b600060ff82169050919050565b82818337600083830152505050565b60005b83811015612880578082015181840152602081019050612865565b8381111561288f576000848401525b50505050565b600060028204905060018216806128ad57607f821691505b602082108114156128c1576128c06129a8565b5b50919050565b6128d082612a58565b810181811067ffffffffffffffff821117156128ef576128ee612a06565b5b80604052505050565b60006129038261283c565b91507fffffffffffffffffffffffffffffffffffffffffffffffffffffffffffffffff82141561293657612935612979565b5b600182019050919050565b600061294c8261295d565b9050919050565b6000819050919050565b600061296882612a69565b9050919050565b6000819050919050565b7f4e487b7100000000000000000000000000000000000000000000000000000000600052601160045260246000fd5b7f4e487b7100000000000000000000000000000000000000000000000000000000600052602260045260246000fd5b7f4e487b7100000000000000000000000000000000000000000000000000000000600052603260045260246000fd5b7f4e487b7100000000000000000000000000000000000000000000000000000000600052604160045260246000fd5b600080fd5b600080fd5b600080fd5b600080fd5b600080fd5b600080fd5b600080fd5b6000601f19601f8301169050919050565b60008160601b9050919050565b7f4e6f74204f776e65722100000000000000000000000000000000000000000000600082015250565b7f496e76616c6964206e756d626572206f6620636f6e6669726d6174696f6e732060008201527f7768656e20657865637574696f6e210000000000000000000000000000000000602082015250565b7f19457468657265756d205369676e6564204d6573736167653a0a333200000000600082015250565b7f545820616c726561647920636f6e6669726d6564210000000000000000000000600082015250565b7f5458206661696c65642100000000000000000000000000000000000000000000600082015250565b7f545820566572696669636174696f6e204641494c454421000000000000000000600082015250565b7f545820616c726561647920657865637574656421000000000000000000000000600082015250565b7f4e6f74206d61746368696e672073697a65732100000000000000000000000000600082015250565b7f7478206e6f7420636f6e6669726d656400000000000000000000000000000000600082015250565b612c16816127f4565b8114612c2157600080fd5b50565b612c2d81612806565b8114612c3857600080fd5b50565b612c4481612812565b8114612c4f57600080fd5b50565b612c5b8161283c565b8114612c6657600080fd5b50565b612c7281612846565b8114612c7d57600080fd5b5056fea26469706673582212203b8f25618bc5cf95a25466e8ffd2d95091421c6dc3d7a4d0b3d77d35d2f7ca0c64736f6c63430008070033",
  "immutableReferences": {},
  "source": "// SPDX-License-Identifier: MIT\npragma solidity ^0.8.7;\n\ncontract MultiSign {\n\n\n  // constatnts\n  bytes32 NAME_HASH = 0xa2743967920baf970a18574423a5e903484167f01ff6c1b931ebc9e87d7792b9;\n  bytes32 VERSION_HASH = 0xc89efdaa54c0f20c7adf612882df0950f5a951637e0307cdcb4c672f298b8bc6;\n  bytes32 SALT = 0x591f92c04bedf51c4d4ab63da86ce895de5a497600061375b667f522f38e3ada;\n\n  // events\n  event Deposit(address indexed sender, uint amount, uint balance);\n  event SubmitTransaction(\n      address indexed owner,\n      uint indexed txIndex,\n      address indexed to,\n      uint value,\n      bytes data\n  );\n  event ConfirmTransaction(address indexed owner, uint indexed txIndex);\n  event RevokeConfirmation(address indexed owner, uint indexed txIndex);\n  event ExecuteTransaction(address indexed owner, uint indexed txIndex, bool success);\n\n  address[] public owners; // list of owners\n  mapping (address => bool) isOwner; // only unique owners\n  uint public numConfirmationsRequired; // Threshold\n\n  mapping(uint => mapping(address => bool)) public isConfirmed; // testing if transaction is confirmed\n  mapping (uint => bool ) public existingTX; \n  struct Transaction {\n    //uint id;\n    address to;\n    uint value;\n    bytes data;\n    bool executed;\n    uint numConfirmations;\n  } // transaction attributes\n\n  // functions for hashing and verifiying\n  //begin\n  // modif2, replacing string memory\n  function hashTX(bytes memory _message)\n  public\n  pure\n  returns (bytes32){\n    return keccak256(abi.encodePacked(_message));\n  }\n\n  function EthSgTXHsh(bytes32 _messageHash)\n  public\n  pure\n  returns (bytes32)\n  {\n    return keccak256(\n      abi.encodePacked(\"\\x19Ethereum Signed Message:\\n32\",_messageHash)\n      );\n  }\n\n  // using double hashing for data taking 32bytes long\n  // the same as hashmessage in web3\n  function EthSgTXHsh2(bytes memory _messageHash)\n  public\n  pure\n  returns (bytes32)\n  {\n    return keccak256(\n      abi.encodePacked(\"\\x19Ethereum Signed Message:\\n32\",_messageHash)\n      );\n  }\n  \n  function TXSgHsh(Transaction memory _transaction)\n  public\n  pure\n  //view\n  returns (bytes32)\n  {\n    return keccak256(\n      abi.encodePacked(\"\\x19Ethereum Signed Message:\\n32\",\n        _transaction.to,\n        _transaction.value,\n        _transaction.data\n        )\n      );\n  }\n\n  function getTXHashfromID(uint _txIndex)\n  public\n  view\n  txExists(_txIndex)\n  returns (bytes32)\n  {\n    return TXSgHsh(transactions[0]);\n  }\n\n  function checkSignature(bytes32 h, uint8 v, bytes32 r, bytes32 s)\n  public\n  pure\n  returns (address signer)\n  {\n      \n    bytes32 prefixedHash = EthSgTXHsh(h);  \n    signer = ecrecover(prefixedHash, v, r, s);\n    return signer;\n  }  \n  // end\n\n  Transaction[] public transactions; // transactions list\n\n  constructor( address[] memory _owners, uint _numConfirmationsRequired) {\n    require( _owners.length > 0, \"Owners required!\" );\n    require( _numConfirmationsRequired > 0 && _numConfirmationsRequired <= _owners.length, \"Invalid number of required confirmations!\" );\n    \n\n    for (uint i = 0; i < _owners.length; i++){\n      address owner = _owners[i];\n\n      require(owner != address(0), \"Invalid owner!\");\n      require( !isOwner[owner], \"Owner not unique!\" );\n      isOwner[owner] = true;\n      owners.push(owner); // adding owner\n    } \n\n    numConfirmationsRequired = _numConfirmationsRequired; // setting threshold\n  }\n\n\n  modifier onlyOwner () {\n    require (isOwner[msg.sender], \"Not Owner!\");\n    _;\n  }\n\n  // first solution to find if transaction exists\n  modifier txExists( uint _txIndex ) {\n    require( _txIndex < transactions.length );\n    _;\n  }\n\n  // second solution to find if transaction exists\n  /*\n  function setTXInd (uint _txIndex) public {\n    existingTX[ _txIndex ] = true;\n  }\n\n  function txExist ( uint _txIndex ) public returns (bool) {\n    return existingTX[ _txIndex ];\n  }\n  */\n  // end solution\n\n  // if tx is not executed\n  modifier notExecuted( uint _txIndex ) {\n    require( !transactions[_txIndex].executed, \"TX already executed!\" );\n    _;\n  }\n\n  // if tx not confirmed\n  modifier notConfirmed( uint _txIndex ){\n    require(!isConfirmed[_txIndex][msg.sender], \"TX already confirmed!\");\n    _;\n  }\n\n  // other owners confirm\n  function confirmTransaction( uint _txIndex )\n  public\n  onlyOwner\n  txExists(_txIndex)\n  notExecuted(_txIndex)\n  notConfirmed(_txIndex)\n  {\n    Transaction storage transaction = transactions[_txIndex];\n    isConfirmed[_txIndex][msg.sender] = true;\n    transaction.numConfirmations += 1;\n    emit ConfirmTransaction(msg.sender, _txIndex);\n  }\n\n  // if enough owners agree we execute\n  // modif1: adding tx verif\n  // modif1, adding params sigvrs\n  function executeTransaction( uint _txIndex, uint8[] memory sigV, bytes32[] memory sigR, bytes32[] memory sigS)\n  public\n  payable\n  onlyOwner\n  txExists(_txIndex)\n  notExecuted(_txIndex)\n  {\n    // modif1\n    // begin\n    require(sigR.length == sigS.length && sigR.length == sigV.length && sigV.length >= numConfirmationsRequired, \"Not matching sizes!\");\n    //  end\n    require (transactions[_txIndex].numConfirmations >= numConfirmationsRequired && transactions[_txIndex].numConfirmations <= owners.length, \"Invalid number of confirmations when execution!\");\n    Transaction storage transaction = transactions[_txIndex];\n    // modif 1\n    //bytes32 txhash = hashTX(transaction.data);\n    // bytes32 txhash = EthSgTXHsh2(transaction.data);\n    bytes32 txhash = TXSgHsh(transaction);\n\n    for (uint i = 0; i < numConfirmationsRequired; i++) {\n      address recoveredAddress = checkSignature(txhash, sigV[i], sigR[i], sigS[i]);\n      if (!(isOwner[recoveredAddress])){\n        transactions[_txIndex].numConfirmations -= 1;\n        revert(\"TX Verification FAILED!\");\n    }\n    }\n    // end modif1\n    \n    // call using payable address\n    address payable receiverAddr = payable(transaction.to);\n    // for ol versions\n    //address payable receiverAddr = address(uint160(transaction.to));\n    (bool success, ) = receiverAddr.call(abi.encode(transaction.data));\n      \n    require(success, \"TX failed!\");\n    transaction.executed = true;\n    emit ExecuteTransaction(msg.sender, _txIndex, true);\n    //emit ExecuteTransaction(msg.sender, _txIndex);\n  }\n\n  // signer revokes transaction\n  function revokeConfirmation(uint _txIndex)\n      public\n      onlyOwner\n      txExists(_txIndex)\n      notExecuted(_txIndex)\n  {\n      Transaction storage transaction = transactions[_txIndex];\n\n      require(isConfirmed[_txIndex][msg.sender], \"tx not confirmed\");\n\n      transaction.numConfirmations -= 1;\n      isConfirmed[_txIndex][msg.sender] = false;\n\n      emit RevokeConfirmation(msg.sender, _txIndex);\n  }\n\n  // owner propse transaction\n  function submitTransaction(\n        address _to,\n        uint _value,\n        bytes memory _data\n    ) public onlyOwner {\n        uint txIndex = transactions.length;\n\n        transactions.push(\n            Transaction({\n                to: _to,\n                value: _value,\n                data: _data,\n                executed: false,\n                numConfirmations: 0\n            })\n        );\n\n        emit SubmitTransaction(msg.sender, txIndex, _to, _value, _data);\n    }\n\n  function getTransaction(uint _txIndex)\n      public\n      view\n      returns (\n          address to,\n          uint value,\n          bytes memory data,\n          bool executed,\n          uint numConfirmations\n      )\n  {\n      Transaction storage transaction = transactions[_txIndex];\n\n      return (\n          transaction.to,\n          transaction.value,\n          transaction.data,\n          transaction.executed,\n          transaction.numConfirmations\n      );\n  }\n\n  function getOwners()\n  public\n  view\n  returns (address[] memory)\n  {\n    return owners;\n  }\n\n  // for testing\n  function gettrd(uint _txIndex)\n  public\n  view\n  returns (bytes32)\n  {\n    Transaction storage transaction = transactions[_txIndex];\n    bytes32 txhash = EthSgTXHsh2(transaction.data);\n    //bytes32 txhash = EthSgTXHsh(txhash);\n    return txhash;\n  }\n\n  function getthisbal()\n  public\n  view\n  returns (uint) {\n    return address(this).balance ;\n  } \n\n  // end testing\n  \n  receive() external payable {\n      emit Deposit(msg.sender, msg.value, address(this).balance);\n  }\n}\n",
  "sourcePath": "/home/msalaani/stage/shared/myWork/MultiSign/contracts/MultiSign.sol",
  "compiler": {
    "name": "solc",
    "version": "0.8.7+commit.e28d00a7.Emscripten.clang"
  },
  "schemaVersion": "3.4.3",
  "updatedAt": "2021-11-08T21:36:08.349Z",
  "devdoc": {
    "kind": "dev",
    "methods": {},
    "version": 1
  },
  "userdoc": {
    "kind": "user",
    "methods": {},
    "version": 1
  }
}